:100000000C9434000C943E000C943E000C943E0082
:100010000C943E000C943E000C943E000C943E0068
:100020000C943E000C943E000C943E000C943E0058
:100030000C943E000C943E000C943E000C943E0048
:100040000C943E000C943E000C943E000C943E0038
:100050000C943E000C943E000C943E000C943E0028
:100060000C943E000C943E0011241FBECFEFD8E04C
:10007000DEBFCDBF0E9440000C944F000C940000E6
:1000800050E2442754B945B9452745B917E488E0FB
:100090009EE60197F1F71A95D1F7F6CF0895F894F7
:0200A000FFCF90
:00000001FF
