:100000000C9434000C943E000C943E000C943E0082
:100010000C943E000C943E000C943E000C943E0068
:100020000C943E000C943E000C943E000C943E0058
:100030000C943E000C943E000C943E000C943E0048
:100040000C943E000C943E000C943E000C943E0038
:100050000C943E000C943E000C943E000C943E0028
:100060000C943E000C943E0011241FBECFEFD8E04C
:10007000DEBFCDBF0E9450000C945C000C940000C9
:100080008A95F1F708950197F1F7089520EA3FE086
:10009000009709F40895F9013197F1F70197F8CF26
:1000A000259A85B185B9C0E285B18C2785B988EBE1
:0C00B0009BE00E944600F8CFF894FFCFC0
:00000001FF
