:100000000C9434000C943E000C943E000C943E0082
:100010000C943E000C943E000C943E000C943E0068
:100020000C943E000C943E000C943E000C943E0058
:100030000C943E000C943E000C943E000C943E0048
:100040000C943E000C943E000C943E000C943E0038
:100050000C943E000C943E000C943E000C943E0028
:100060000C943E000C943E0011241FBECFEFD8E04C
:10007000DEBFCDBF0E94CB000C9496020C94000012
:100080008A95F1F708950197F1F7089520EA3FE086
:10009000009709F40895F9013197F1F70197F8CF26
:1000A00024E030E0009709F40895F9013197F1F761
:1000B0000197F8CFEF92FF920F931F93CF93DF93A7
:1000C000E82EEB018A0180E090E00E9498019B01FC
:1000D000AC0160E070E080E89FE30E94FD0020E05A
:1000E00030E040E05FE30E942102C53FD14048F587
:1000F00020E030E04AE754E40E9421020E946F01B0
:10010000EB01C801BE010E94E9008B0181E090E093
:100110009C0101C0220FEA94EAF7E22E01151105B5
:1001200039F4DF91CF911F910F91FF90EF900895D7
:1001300085B18E2585B9CE010E9446000150110976
:10014000EDCF20E034E244E759E40E9421020E940E
:100150006F01EB01C801BE010E94E90088EE93E047
:10016000689F8001699F100D789F100D112421E078
:1001700030E0C90101C0880FEA94EAF7E82E0115C2
:10018000110579F285B18E2585B9CE010E94500006
:1001900001501109F4CF84B1806384B985B185B968
:1001A000C4E6D0E010E285B1812785B948EE53E07E
:1001B000BE0184E00E945A0088EE93E00E9446004F
:1001C000CC59DF4FC03D87E0D80769F7C4E6D0E0DF
:1001D000EACFAA1BBB1B51E107C0AA1FBB1FA61772
:1001E000B70710F0A61BB70B881F991F5A95A9F7E0
:1001F00080959095BC01CD0108950E9411010C9449
:10020000E7010E94E00158F00E94D90140F029F472
:100210005F3F29F00C94D00151110C941B020C94F7
:10022000D6010E94F80168F39923B1F3552391F3A5
:10023000951B550BBB27AA2762177307840738F055
:100240009F5F5F4F220F331F441FAA1FA9F335D0B2
:100250000E2E3AF0E0E832D091505040E695001C66
:10026000CAF72BD0FE2F29D0660F771F881FBB1F20
:10027000261737074807AB07B0E809F0BB0B802DFE
:10028000BF01FF2793585F4F3AF09E3F510578F02A
:100290000C94D0010C941B025F3FE4F3983ED4F31E
:1002A000869577956795B795F7959F5FC9F7880FFE
:1002B000911D9695879597F90895E1E0660F771F50
:1002C000881FBB1F621773078407BA0720F0621BE1
:1002D000730B840BBA0BEE1F88F7E09508950E940C
:1002E000000288F09F5798F0B92F9927B751B0F0C6
:1002F000E1F0660F771F881F991F1AF0BA95C9F7AA
:1003000014C0B13091F00E941A02B1E008950C942B
:100310001A02672F782F8827B85F39F0B93FCCF3DE
:10032000869577956795B395D9F786F70C948E02E5
:10033000E89404C097FB16F40E948E029923A9F05A
:10034000F92F96E9BB279395F6958795779567954D
:10035000B795F111F8CFFAF4BB0F11F460FF1BC091
:100360006F5F7F4F8F4F9F4F16C0882311F096E924
:1003700011C0772321F09EE8872F762F05C06623D2
:1003800071F096E8862F70E060E02AF09A95660F8B
:10039000771F881FDAF7880F9695879597F9089544
:1003A00097F99F6780E870E060E008959FEF80EC28
:1003B000089500240A9416161706180609060895CB
:1003C00000240A9412161306140605060895092E31
:1003D0000394000C11F4882352F0BB0F40F4BF2BA0
:1003E00011F460FF04C06F5F7F4F8F4F9F4F0895E0
:1003F00057FD9058440F551F59F05F3F71F04795D6
:10040000880F97FB991F61F09F3F79F087950895BA
:10041000121613061406551FF2CF4695F1DF08C0D9
:10042000161617061806991FF1CF869571056105F6
:1004300008940895E894BB2766277727CB0197F99E
:1004400008950E9434020C94E7010E94D90138F00B
:100450000E94E00120F0952311F00C94D0010C943F
:10046000D60111240C941B020E94F80170F3959F91
:10047000C1F3950F50E0551F629FF001729FBB279B
:10048000F00DB11D639FAA27F00DB11DAA1F649F37
:100490006627B00DA11D661F829F2227B00DA11DEA
:1004A000621F739FB00DA11D621F839FA00D611D70
:1004B000221F749F3327A00D611D231F849F600D91
:1004C000211D822F762F6A2F11249F5750409AF0BA
:1004D000F1F088234AF0EE0FFF1FBB1F661F771F46
:1004E000881F91505040A9F79E3F510580F00C9411
:1004F000D0010C941B025F3FE4F3983ED4F3869541
:1005000077956795B795F795E7959F5FC1F7FE2BB0
:10051000880F911D9695879597F9089590958095E8
:10052000709561957F4F8F4F9F4F0895F894FFCF3F
:00000001FF
